{
  "contractName": "auction",
  "abi": [
    {
      "inputs": [],
      "stateMutability": "nonpayable",
      "type": "constructor"
    },
    {
      "anonymous": false,
      "inputs": [
        {
          "indexed": true,
          "internalType": "address",
          "name": "owner",
          "type": "address"
        },
        {
          "indexed": true,
          "internalType": "address",
          "name": "approved",
          "type": "address"
        },
        {
          "indexed": true,
          "internalType": "uint256",
          "name": "tokenId",
          "type": "uint256"
        }
      ],
      "name": "Approval",
      "type": "event"
    },
    {
      "anonymous": false,
      "inputs": [
        {
          "indexed": true,
          "internalType": "address",
          "name": "owner",
          "type": "address"
        },
        {
          "indexed": true,
          "internalType": "address",
          "name": "operator",
          "type": "address"
        },
        {
          "indexed": false,
          "internalType": "bool",
          "name": "approved",
          "type": "bool"
        }
      ],
      "name": "ApprovalForAll",
      "type": "event"
    },
    {
      "anonymous": false,
      "inputs": [
        {
          "indexed": true,
          "internalType": "address",
          "name": "from",
          "type": "address"
        },
        {
          "indexed": true,
          "internalType": "address",
          "name": "to",
          "type": "address"
        },
        {
          "indexed": true,
          "internalType": "uint256",
          "name": "tokenId",
          "type": "uint256"
        }
      ],
      "name": "Transfer",
      "type": "event"
    },
    {
      "inputs": [
        {
          "internalType": "address",
          "name": "to",
          "type": "address"
        },
        {
          "internalType": "uint256",
          "name": "tokenId",
          "type": "uint256"
        }
      ],
      "name": "approve",
      "outputs": [],
      "stateMutability": "nonpayable",
      "type": "function"
    },
    {
      "inputs": [
        {
          "internalType": "address",
          "name": "owner",
          "type": "address"
        }
      ],
      "name": "balanceOf",
      "outputs": [
        {
          "internalType": "uint256",
          "name": "",
          "type": "uint256"
        }
      ],
      "stateMutability": "view",
      "type": "function",
      "constant": true
    },
    {
      "inputs": [],
      "name": "gameOwner",
      "outputs": [
        {
          "internalType": "address",
          "name": "",
          "type": "address"
        }
      ],
      "stateMutability": "view",
      "type": "function",
      "constant": true
    },
    {
      "inputs": [
        {
          "internalType": "uint256",
          "name": "tokenId",
          "type": "uint256"
        }
      ],
      "name": "getApproved",
      "outputs": [
        {
          "internalType": "address",
          "name": "",
          "type": "address"
        }
      ],
      "stateMutability": "view",
      "type": "function",
      "constant": true
    },
    {
      "inputs": [
        {
          "internalType": "address",
          "name": "owner",
          "type": "address"
        },
        {
          "internalType": "address",
          "name": "operator",
          "type": "address"
        }
      ],
      "name": "isApprovedForAll",
      "outputs": [
        {
          "internalType": "bool",
          "name": "",
          "type": "bool"
        }
      ],
      "stateMutability": "view",
      "type": "function",
      "constant": true
    },
    {
      "inputs": [],
      "name": "name",
      "outputs": [
        {
          "internalType": "string",
          "name": "",
          "type": "string"
        }
      ],
      "stateMutability": "view",
      "type": "function",
      "constant": true
    },
    {
      "inputs": [
        {
          "internalType": "uint256",
          "name": "",
          "type": "uint256"
        }
      ],
      "name": "nfts",
      "outputs": [
        {
          "internalType": "uint256",
          "name": "id",
          "type": "uint256"
        },
        {
          "internalType": "string",
          "name": "name",
          "type": "string"
        },
        {
          "internalType": "string",
          "name": "imgurl",
          "type": "string"
        },
        {
          "internalType": "bool",
          "name": "onsale",
          "type": "bool"
        },
        {
          "internalType": "uint256",
          "name": "startprice",
          "type": "uint256"
        },
        {
          "internalType": "bool",
          "name": "setaside",
          "type": "bool"
        },
        {
          "internalType": "uint256",
          "name": "endtime",
          "type": "uint256"
        }
      ],
      "stateMutability": "view",
      "type": "function",
      "constant": true
    },
    {
      "inputs": [
        {
          "internalType": "uint256",
          "name": "tokenId",
          "type": "uint256"
        }
      ],
      "name": "ownerOf",
      "outputs": [
        {
          "internalType": "address",
          "name": "",
          "type": "address"
        }
      ],
      "stateMutability": "view",
      "type": "function",
      "constant": true
    },
    {
      "inputs": [
        {
          "internalType": "uint256",
          "name": "",
          "type": "uint256"
        }
      ],
      "name": "result",
      "outputs": [
        {
          "internalType": "uint256",
          "name": "id",
          "type": "uint256"
        },
        {
          "internalType": "string",
          "name": "name",
          "type": "string"
        },
        {
          "internalType": "string",
          "name": "imgurl",
          "type": "string"
        },
        {
          "internalType": "bool",
          "name": "onsale",
          "type": "bool"
        },
        {
          "internalType": "uint256",
          "name": "startprice",
          "type": "uint256"
        },
        {
          "internalType": "bool",
          "name": "setaside",
          "type": "bool"
        },
        {
          "internalType": "uint256",
          "name": "endtime",
          "type": "uint256"
        }
      ],
      "stateMutability": "view",
      "type": "function",
      "constant": true
    },
    {
      "inputs": [
        {
          "internalType": "address",
          "name": "from",
          "type": "address"
        },
        {
          "internalType": "address",
          "name": "to",
          "type": "address"
        },
        {
          "internalType": "uint256",
          "name": "tokenId",
          "type": "uint256"
        }
      ],
      "name": "safeTransferFrom",
      "outputs": [],
      "stateMutability": "nonpayable",
      "type": "function"
    },
    {
      "inputs": [
        {
          "internalType": "address",
          "name": "from",
          "type": "address"
        },
        {
          "internalType": "address",
          "name": "to",
          "type": "address"
        },
        {
          "internalType": "uint256",
          "name": "tokenId",
          "type": "uint256"
        },
        {
          "internalType": "bytes",
          "name": "_data",
          "type": "bytes"
        }
      ],
      "name": "safeTransferFrom",
      "outputs": [],
      "stateMutability": "nonpayable",
      "type": "function"
    },
    {
      "inputs": [
        {
          "internalType": "address",
          "name": "operator",
          "type": "address"
        },
        {
          "internalType": "bool",
          "name": "approved",
          "type": "bool"
        }
      ],
      "name": "setApprovalForAll",
      "outputs": [],
      "stateMutability": "nonpayable",
      "type": "function"
    },
    {
      "inputs": [
        {
          "internalType": "bytes4",
          "name": "interfaceId",
          "type": "bytes4"
        }
      ],
      "name": "supportsInterface",
      "outputs": [
        {
          "internalType": "bool",
          "name": "",
          "type": "bool"
        }
      ],
      "stateMutability": "view",
      "type": "function",
      "constant": true
    },
    {
      "inputs": [],
      "name": "symbol",
      "outputs": [
        {
          "internalType": "string",
          "name": "",
          "type": "string"
        }
      ],
      "stateMutability": "view",
      "type": "function",
      "constant": true
    },
    {
      "inputs": [
        {
          "internalType": "uint256",
          "name": "",
          "type": "uint256"
        }
      ],
      "name": "temp",
      "outputs": [
        {
          "internalType": "address",
          "name": "",
          "type": "address"
        }
      ],
      "stateMutability": "view",
      "type": "function",
      "constant": true
    },
    {
      "inputs": [
        {
          "internalType": "uint256",
          "name": "tokenId",
          "type": "uint256"
        }
      ],
      "name": "tokenURI",
      "outputs": [
        {
          "internalType": "string",
          "name": "",
          "type": "string"
        }
      ],
      "stateMutability": "view",
      "type": "function",
      "constant": true
    },
    {
      "inputs": [
        {
          "internalType": "address",
          "name": "from",
          "type": "address"
        },
        {
          "internalType": "address",
          "name": "to",
          "type": "address"
        },
        {
          "internalType": "uint256",
          "name": "tokenId",
          "type": "uint256"
        }
      ],
      "name": "transferFrom",
      "outputs": [],
      "stateMutability": "nonpayable",
      "type": "function"
    },
    {
      "inputs": [
        {
          "internalType": "string",
          "name": "_name",
          "type": "string"
        },
        {
          "internalType": "string",
          "name": "_imgurl",
          "type": "string"
        }
      ],
      "name": "createNFT",
      "outputs": [],
      "stateMutability": "payable",
      "type": "function",
      "payable": true
    },
    {
      "inputs": [
        {
          "internalType": "uint256",
          "name": "_id",
          "type": "uint256"
        },
        {
          "internalType": "uint256",
          "name": "_sec",
          "type": "uint256"
        },
        {
          "internalType": "uint256",
          "name": "_startprice",
          "type": "uint256"
        }
      ],
      "name": "createAuction",
      "outputs": [],
      "stateMutability": "payable",
      "type": "function",
      "payable": true
    },
    {
      "inputs": [
        {
          "internalType": "address",
          "name": "_sender",
          "type": "address"
        }
      ],
      "name": "getNFT",
      "outputs": [
        {
          "components": [
            {
              "internalType": "uint256",
              "name": "id",
              "type": "uint256"
            },
            {
              "internalType": "string",
              "name": "name",
              "type": "string"
            },
            {
              "internalType": "string",
              "name": "imgurl",
              "type": "string"
            },
            {
              "internalType": "address[]",
              "name": "ownerhistory",
              "type": "address[]"
            },
            {
              "internalType": "bool",
              "name": "onsale",
              "type": "bool"
            },
            {
              "internalType": "uint256",
              "name": "startprice",
              "type": "uint256"
            },
            {
              "internalType": "address[]",
              "name": "bidderhistory",
              "type": "address[]"
            },
            {
              "internalType": "uint256[]",
              "name": "bidpricehistory",
              "type": "uint256[]"
            },
            {
              "internalType": "bool",
              "name": "setaside",
              "type": "bool"
            },
            {
              "internalType": "uint256",
              "name": "endtime",
              "type": "uint256"
            }
          ],
          "internalType": "struct auction.NFT[]",
          "name": "",
          "type": "tuple[]"
        }
      ],
      "stateMutability": "nonpayable",
      "type": "function"
    },
    {
      "inputs": [],
      "name": "getAuction",
      "outputs": [
        {
          "components": [
            {
              "internalType": "uint256",
              "name": "id",
              "type": "uint256"
            },
            {
              "internalType": "string",
              "name": "name",
              "type": "string"
            },
            {
              "internalType": "string",
              "name": "imgurl",
              "type": "string"
            },
            {
              "internalType": "address[]",
              "name": "ownerhistory",
              "type": "address[]"
            },
            {
              "internalType": "bool",
              "name": "onsale",
              "type": "bool"
            },
            {
              "internalType": "uint256",
              "name": "startprice",
              "type": "uint256"
            },
            {
              "internalType": "address[]",
              "name": "bidderhistory",
              "type": "address[]"
            },
            {
              "internalType": "uint256[]",
              "name": "bidpricehistory",
              "type": "uint256[]"
            },
            {
              "internalType": "bool",
              "name": "setaside",
              "type": "bool"
            },
            {
              "internalType": "uint256",
              "name": "endtime",
              "type": "uint256"
            }
          ],
          "internalType": "struct auction.NFT[]",
          "name": "",
          "type": "tuple[]"
        }
      ],
      "stateMutability": "nonpayable",
      "type": "function"
    },
    {
      "inputs": [
        {
          "internalType": "uint256",
          "name": "timestamp",
          "type": "uint256"
        }
      ],
      "name": "checkAllOverTime",
      "outputs": [],
      "stateMutability": "payable",
      "type": "function",
      "payable": true
    },
    {
      "inputs": [],
      "name": "updateAuction",
      "outputs": [
        {
          "internalType": "uint256",
          "name": "",
          "type": "uint256"
        }
      ],
      "stateMutability": "payable",
      "type": "function",
      "payable": true
    },
    {
      "inputs": [
        {
          "internalType": "uint256",
          "name": "_id",
          "type": "uint256"
        },
        {
          "internalType": "address",
          "name": "sender",
          "type": "address"
        }
      ],
      "name": "bid",
      "outputs": [],
      "stateMutability": "payable",
      "type": "function",
      "payable": true
    },
    {
      "inputs": [
        {
          "internalType": "address",
          "name": "_sender",
          "type": "address"
        }
      ],
      "name": "getbid",
      "outputs": [
        {
          "components": [
            {
              "internalType": "uint256",
              "name": "id",
              "type": "uint256"
            },
            {
              "internalType": "string",
              "name": "name",
              "type": "string"
            },
            {
              "internalType": "string",
              "name": "imgurl",
              "type": "string"
            },
            {
              "internalType": "address[]",
              "name": "ownerhistory",
              "type": "address[]"
            },
            {
              "internalType": "bool",
              "name": "onsale",
              "type": "bool"
            },
            {
              "internalType": "uint256",
              "name": "startprice",
              "type": "uint256"
            },
            {
              "internalType": "address[]",
              "name": "bidderhistory",
              "type": "address[]"
            },
            {
              "internalType": "uint256[]",
              "name": "bidpricehistory",
              "type": "uint256[]"
            },
            {
              "internalType": "bool",
              "name": "setaside",
              "type": "bool"
            },
            {
              "internalType": "uint256",
              "name": "endtime",
              "type": "uint256"
            }
          ],
          "internalType": "struct auction.NFT[]",
          "name": "",
          "type": "tuple[]"
        }
      ],
      "stateMutability": "nonpayable",
      "type": "function"
    },
    {
      "inputs": [
        {
          "internalType": "uint256",
          "name": "_id",
          "type": "uint256"
        }
      ],
      "name": "ownerconfirm",
      "outputs": [],
      "stateMutability": "payable",
      "type": "function",
      "payable": true
    },
    {
      "inputs": [
        {
          "internalType": "uint256",
          "name": "_id",
          "type": "uint256"
        }
      ],
      "name": "buyerconfirm",
      "outputs": [],
      "stateMutability": "payable",
      "type": "function",
      "payable": true
    }
  ],
  "bytecode": "0x60806040523480156200001157600080fd5b506040518060400160405280600881526020017f47616d654974656d0000000000000000000000000000000000000000000000008152506040518060400160405280600381526020017f49544d0000000000000000000000000000000000000000000000000000000000815250816000908051906020019062000096929190620000f9565b508060019080519060200190620000af929190620000f9565b50505033600960006101000a81548173ffffffffffffffffffffffffffffffffffffffff021916908373ffffffffffffffffffffffffffffffffffffffff1602179055506200020e565b8280546200010790620001d8565b90600052602060002090601f0160209004810192826200012b576000855562000177565b82601f106200014657805160ff191683800117855562000177565b8280016001018555821562000177579182015b828111156200017657825182559160200191906001019062000159565b5b5090506200018691906200018a565b5090565b5b80821115620001a55760008160009055506001016200018b565b5090565b7f4e487b7100000000000000000000000000000000000000000000000000000000600052602260045260246000fd5b60006002820490506001821680620001f157607f821691505b60208210811415620002085762000207620001a9565b5b50919050565b6159a0806200021e6000396000f3fe60806040526004361061019c5760003560e01c806370a08231116100ec578063a22cb4651161008a578063cda4beef11610064578063cda4beef146105e9578063e985e9c514610605578063edf8660a14610642578063f6b12f28146106605761019c565b8063a22cb4651461055a578063b88d4fde14610583578063c87b56dd146105ac5761019c565b80638d29df7d116100c65780638d29df7d146104db57806395d89b41146104f75780639f04996d14610522578063a02a9d121461053e5761019c565b806370a08231146104575780637327df25146104945780637cc9255f146104bf5761019c565b8063265aa6211161015957806353140cca1161013357806353140cca146103845780636352211e146103c157806368613d17146103fe5780636c3755ad1461041a5761019c565b8063265aa621146102d55780633c5940591461031857806342842e0e1461035b5761019c565b806301ffc9a7146101a157806306fdde03146101de578063081812fc14610209578063095ea7b314610246578063161a6c1e1461026f57806323b872dd146102ac575b600080fd5b3480156101ad57600080fd5b506101c860048036038101906101c391906142f1565b61068b565b6040516101d59190614339565b60405180910390f35b3480156101ea57600080fd5b506101f361076d565b60405161020091906143ed565b60405180910390f35b34801561021557600080fd5b50610230600480360381019061022b9190614445565b6107ff565b60405161023d91906144b3565b60405180910390f35b34801561025257600080fd5b5061026d600480360381019061026891906144fa565b610884565b005b34801561027b57600080fd5b506102966004803603810190610291919061453a565b61099c565b6040516102a391906148f4565b60405180910390f35b3480156102b857600080fd5b506102d360048036038101906102ce9190614916565b610ea5565b005b3480156102e157600080fd5b506102fc60048036038101906102f79190614445565b610f05565b60405161030f9796959493929190614978565b60405180910390f35b34801561032457600080fd5b5061033f600480360381019061033a9190614445565b611081565b6040516103529796959493929190614978565b60405180910390f35b34801561036757600080fd5b50610382600480360381019061037d9190614916565b6111fd565b005b34801561039057600080fd5b506103ab60048036038101906103a6919061453a565b61121d565b6040516103b891906148f4565b60405180910390f35b3480156103cd57600080fd5b506103e860048036038101906103e39190614445565b61184b565b6040516103f591906144b3565b60405180910390f35b61041860048036038101906104139190614b2a565b6118fd565b005b34801561042657600080fd5b50610441600480360381019061043c9190614445565b611b91565b60405161044e91906144b3565b60405180910390f35b34801561046357600080fd5b5061047e6004803603810190610479919061453a565b611bd0565b60405161048b9190614ba2565b60405180910390f35b3480156104a057600080fd5b506104a9611c88565b6040516104b691906148f4565b60405180910390f35b6104d960048036038101906104d49190614445565b612192565b005b6104f560048036038101906104f09190614445565b612352565b005b34801561050357600080fd5b5061050c612685565b60405161051991906143ed565b60405180910390f35b61053c60048036038101906105379190614bbd565b612717565b005b61055860048036038101906105539190614445565b612ade565b005b34801561056657600080fd5b50610581600480360381019061057c9190614c29565b612e14565b005b34801561058f57600080fd5b506105aa60048036038101906105a59190614d0a565b612f95565b005b3480156105b857600080fd5b506105d360048036038101906105ce9190614445565b612ff7565b6040516105e091906143ed565b60405180910390f35b61060360048036038101906105fe9190614d8d565b61309e565b005b34801561061157600080fd5b5061062c60048036038101906106279190614de0565b61321a565b6040516106399190614339565b60405180910390f35b61064a6132ae565b6040516106579190614ba2565b60405180910390f35b34801561066c57600080fd5b506106756133cc565b60405161068291906144b3565b60405180910390f35b60007f80ac58cd000000000000000000000000000000000000000000000000000000007bffffffffffffffffffffffffffffffffffffffffffffffffffffffff1916827bffffffffffffffffffffffffffffffffffffffffffffffffffffffff1916148061075657507f5b5e139f000000000000000000000000000000000000000000000000000000007bffffffffffffffffffffffffffffffffffffffffffffffffffffffff1916827bffffffffffffffffffffffffffffffffffffffffffffffffffffffff1916145b806107665750610765826133f2565b5b9050919050565b60606000805461077c90614e4f565b80601f01602080910402602001604051908101604052809291908181526020018280546107a890614e4f565b80156107f55780601f106107ca576101008083540402835291602001916107f5565b820191906000526020600020905b8154815290600101906020018083116107d857829003601f168201915b5050505050905090565b600061080a8261345c565b610849576040517f08c379a000000000000000000000000000000000000000000000000000000000815260040161084090614ef3565b60405180910390fd5b6004600083815260200190815260200160002060009054906101000a900473ffffffffffffffffffffffffffffffffffffffff169050919050565b600061088f8261184b565b90508073ffffffffffffffffffffffffffffffffffffffff168373ffffffffffffffffffffffffffffffffffffffff161415610900576040517f08c379a00000000000000000000000000000000000000000000000000000000081526004016108f790614f85565b60405180910390fd5b8073ffffffffffffffffffffffffffffffffffffffff1661091f6134c8565b73ffffffffffffffffffffffffffffffffffffffff16148061094e575061094d816109486134c8565b61321a565b5b61098d576040517f08c379a000000000000000000000000000000000000000000000000000000000815260040161098490615017565b60405180910390fd5b61099783836134d0565b505050565b6060600760006109ac9190613e8d565b60005b600680549050811015610b58578273ffffffffffffffffffffffffffffffffffffffff166109dc8261184b565b73ffffffffffffffffffffffffffffffffffffffff161415610b4557600760068281548110610a0e57610a0d615037565b5b90600052602060002090600a020190806001815401808255809150506001900390600052602060002090600a0201600090919091909150600082015481600001556001820181600101908054610a6390614e4f565b610a6e929190613eb1565b506002820181600201908054610a8390614e4f565b610a8e929190613eb1565b506003820181600301908054610aa5929190613f3e565b506004820160009054906101000a900460ff168160040160006101000a81548160ff021916908315150217905550600582015481600501556006820181600601908054610af3929190613f3e565b506007820181600701908054610b0a929190613f90565b506008820160009054906101000a900460ff168160080160006101000a81548160ff0219169083151502179055506009820154816009015550505b8080610b5090615095565b9150506109af565b506007805480602002602001604051908101604052809291908181526020016000905b82821015610e9a57838290600052602060002090600a02016040518061014001604052908160008201548152602001600182018054610bb990614e4f565b80601f0160208091040260200160405190810160405280929190818152602001828054610be590614e4f565b8015610c325780601f10610c0757610100808354040283529160200191610c32565b820191906000526020600020905b815481529060010190602001808311610c1557829003601f168201915b50505050508152602001600282018054610c4b90614e4f565b80601f0160208091040260200160405190810160405280929190818152602001828054610c7790614e4f565b8015610cc45780601f10610c9957610100808354040283529160200191610cc4565b820191906000526020600020905b815481529060010190602001808311610ca757829003601f168201915b5050505050815260200160038201805480602002602001604051908101604052809291908181526020018280548015610d5257602002820191906000526020600020905b8160009054906101000a900473ffffffffffffffffffffffffffffffffffffffff1673ffffffffffffffffffffffffffffffffffffffff1681526020019060010190808311610d08575b505050505081526020016004820160009054906101000a900460ff161515151581526020016005820154815260200160068201805480602002602001604051908101604052809291908181526020018280548015610e0557602002820191906000526020600020905b8160009054906101000a900473ffffffffffffffffffffffffffffffffffffffff1673ffffffffffffffffffffffffffffffffffffffff1681526020019060010190808311610dbb575b5050505050815260200160078201805480602002602001604051908101604052809291908181526020018280548015610e5d57602002820191906000526020600020905b815481526020019060010190808311610e49575b505050505081526020016008820160009054906101000a900460ff1615151515815260200160098201548152505081526020019060010190610b7b565b505050509050919050565b610eb6610eb06134c8565b82613589565b610ef5576040517f08c379a0000000000000000000000000000000000000000000000000000000008152600401610eec90615150565b60405180910390fd5b610f00838383613667565b505050565b60068181548110610f1557600080fd5b90600052602060002090600a0201600091509050806000015490806001018054610f3e90614e4f565b80601f0160208091040260200160405190810160405280929190818152602001828054610f6a90614e4f565b8015610fb75780601f10610f8c57610100808354040283529160200191610fb7565b820191906000526020600020905b815481529060010190602001808311610f9a57829003601f168201915b505050505090806002018054610fcc90614e4f565b80601f0160208091040260200160405190810160405280929190818152602001828054610ff890614e4f565b80156110455780601f1061101a57610100808354040283529160200191611045565b820191906000526020600020905b81548152906001019060200180831161102857829003601f168201915b5050505050908060040160009054906101000a900460ff16908060050154908060080160009054906101000a900460ff16908060090154905087565b6007818154811061109157600080fd5b90600052602060002090600a02016000915090508060000154908060010180546110ba90614e4f565b80601f01602080910402602001604051908101604052809291908181526020018280546110e690614e4f565b80156111335780601f1061110857610100808354040283529160200191611133565b820191906000526020600020905b81548152906001019060200180831161111657829003601f168201915b50505050509080600201805461114890614e4f565b80601f016020809104026020016040519081016040528092919081815260200182805461117490614e4f565b80156111c15780601f10611196576101008083540402835291602001916111c1565b820191906000526020600020905b8154815290600101906020018083116111a457829003601f168201915b5050505050908060040160009054906101000a900460ff16908060050154908060080160009054906101000a900460ff16908060090154905087565b61121883838360405180602001604052806000815250612f95565b505050565b60606007600061122d9190613e8d565b60005b6006805490508110156114fe57600115156006828154811061125557611254615037565b5b90600052602060002090600a020160040160009054906101000a900460ff16151514806112b85750600115156006828154811061129557611294615037565b5b90600052602060002090600a020160080160009054906101000a900460ff161515145b156114eb5760005b600682815481106112d4576112d3615037565b5b90600052602060002090600a0201600601805490508110156114e9578373ffffffffffffffffffffffffffffffffffffffff166006838154811061131b5761131a615037565b5b90600052602060002090600a0201600601828154811061133e5761133d615037565b5b9060005260206000200160009054906101000a900473ffffffffffffffffffffffffffffffffffffffff1673ffffffffffffffffffffffffffffffffffffffff1614156114d65760076006838154811061139b5761139a615037565b5b90600052602060002090600a020190806001815401808255809150506001900390600052602060002090600a02016000909190919091506000820154816000015560018201816001019080546113f090614e4f565b6113fb929190613eb1565b50600282018160020190805461141090614e4f565b61141b929190613eb1565b506003820181600301908054611432929190613f3e565b506004820160009054906101000a900460ff168160040160006101000a81548160ff021916908315150217905550600582015481600501556006820181600601908054611480929190613f3e565b506007820181600701908054611497929190613f90565b506008820160009054906101000a900460ff168160080160006101000a81548160ff0219169083151502179055506009820154816009015550506114e9565b80806114e190615095565b9150506112c0565b505b80806114f690615095565b915050611230565b506007805480602002602001604051908101604052809291908181526020016000905b8282101561184057838290600052602060002090600a0201604051806101400160405290816000820154815260200160018201805461155f90614e4f565b80601f016020809104026020016040519081016040528092919081815260200182805461158b90614e4f565b80156115d85780601f106115ad576101008083540402835291602001916115d8565b820191906000526020600020905b8154815290600101906020018083116115bb57829003601f168201915b505050505081526020016002820180546115f190614e4f565b80601f016020809104026020016040519081016040528092919081815260200182805461161d90614e4f565b801561166a5780601f1061163f5761010080835404028352916020019161166a565b820191906000526020600020905b81548152906001019060200180831161164d57829003601f168201915b50505050508152602001600382018054806020026020016040519081016040528092919081815260200182805480156116f857602002820191906000526020600020905b8160009054906101000a900473ffffffffffffffffffffffffffffffffffffffff1673ffffffffffffffffffffffffffffffffffffffff16815260200190600101908083116116ae575b505050505081526020016004820160009054906101000a900460ff1615151515815260200160058201548152602001600682018054806020026020016040519081016040528092919081815260200182805480156117ab57602002820191906000526020600020905b8160009054906101000a900473ffffffffffffffffffffffffffffffffffffffff1673ffffffffffffffffffffffffffffffffffffffff1681526020019060010190808311611761575b505050505081526020016007820180548060200260200160405190810160405280929190818152602001828054801561180357602002820191906000526020600020905b8154815260200190600101908083116117ef575b505050505081526020016008820160009054906101000a900460ff1615151515815260200160098201548152505081526020019060010190611521565b505050509050919050565b6000806002600084815260200190815260200160002060009054906101000a900473ffffffffffffffffffffffffffffffffffffffff169050600073ffffffffffffffffffffffffffffffffffffffff168173ffffffffffffffffffffffffffffffffffffffff1614156118f4576040517f08c379a00000000000000000000000000000000000000000000000000000000081526004016118eb906151e2565b60405180910390fd5b80915050919050565b67016345785d8a0000341461191157600080fd5b60006006805490509050600860006119299190613fe2565b6008339080600181540180825580915050600190039060005260206000200160009091909190916101000a81548173ffffffffffffffffffffffffffffffffffffffff021916908373ffffffffffffffffffffffffffffffffffffffff16021790555060608060066040518061014001604052808581526020018781526020018681526020016008805480602002602001604051908101604052809291908181526020018280548015611a3157602002820191906000526020600020905b8160009054906101000a900473ffffffffffffffffffffffffffffffffffffffff1673ffffffffffffffffffffffffffffffffffffffff16815260200190600101908083116119e7575b50505050508152602001600015158152602001600081526020018481526020018381526020016000151581526020014281525090806001815401808255809150506001900390600052602060002090600a0201600090919091909150600082015181600001556020820151816001019080519060200190611ab3929190614003565b506040820151816002019080519060200190611ad0929190614003565b506060820151816003019080519060200190611aed929190614089565b5060808201518160040160006101000a81548160ff02191690831515021790555060a0820151816005015560c0820151816006019080519060200190611b34929190614089565b5060e0820151816007019080519060200190611b51929190614113565b506101008201518160080160006101000a81548160ff02191690831515021790555061012082015181600901555050611b8a33846138c3565b5050505050565b60088181548110611ba157600080fd5b906000526020600020016000915054906101000a900473ffffffffffffffffffffffffffffffffffffffff1681565b60008073ffffffffffffffffffffffffffffffffffffffff168273ffffffffffffffffffffffffffffffffffffffff161415611c41576040517f08c379a0000000000000000000000000000000000000000000000000000000008152600401611c3890615274565b60405180910390fd5b600360008373ffffffffffffffffffffffffffffffffffffffff1673ffffffffffffffffffffffffffffffffffffffff168152602001908152602001600020549050919050565b606060076000611c989190613e8d565b60005b600680549050811015611e47576001151560068281548110611cc057611cbf615037565b5b90600052602060002090600a020160040160009054906101000a900460ff1615151415611e3457600760068281548110611cfd57611cfc615037565b5b90600052602060002090600a020190806001815401808255809150506001900390600052602060002090600a0201600090919091909150600082015481600001556001820181600101908054611d5290614e4f565b611d5d929190613eb1565b506002820181600201908054611d7290614e4f565b611d7d929190613eb1565b506003820181600301908054611d94929190613f3e565b506004820160009054906101000a900460ff168160040160006101000a81548160ff021916908315150217905550600582015481600501556006820181600601908054611de2929190613f3e565b506007820181600701908054611df9929190613f90565b506008820160009054906101000a900460ff168160080160006101000a81548160ff0219169083151502179055506009820154816009015550505b8080611e3f90615095565b915050611c9b565b506007805480602002602001604051908101604052809291908181526020016000905b8282101561218957838290600052602060002090600a02016040518061014001604052908160008201548152602001600182018054611ea890614e4f565b80601f0160208091040260200160405190810160405280929190818152602001828054611ed490614e4f565b8015611f215780601f10611ef657610100808354040283529160200191611f21565b820191906000526020600020905b815481529060010190602001808311611f0457829003601f168201915b50505050508152602001600282018054611f3a90614e4f565b80601f0160208091040260200160405190810160405280929190818152602001828054611f6690614e4f565b8015611fb35780601f10611f8857610100808354040283529160200191611fb3565b820191906000526020600020905b815481529060010190602001808311611f9657829003601f168201915b505050505081526020016003820180548060200260200160405190810160405280929190818152602001828054801561204157602002820191906000526020600020905b8160009054906101000a900473ffffffffffffffffffffffffffffffffffffffff1673ffffffffffffffffffffffffffffffffffffffff1681526020019060010190808311611ff7575b505050505081526020016004820160009054906101000a900460ff1615151515815260200160058201548152602001600682018054806020026020016040519081016040528092919081815260200182805480156120f457602002820191906000526020600020905b8160009054906101000a900473ffffffffffffffffffffffffffffffffffffffff1673ffffffffffffffffffffffffffffffffffffffff16815260200190600101908083116120aa575b505050505081526020016007820180548060200260200160405190810160405280929190818152602001828054801561214c57602002820191906000526020600020905b815481526020019060010190808311612138575b505050505081526020016008820160009054906101000a900460ff1615151515815260200160098201548152505081526020019060010190611e6a565b50505050905090565b60011515600682815481106121aa576121a9615037565b5b90600052602060002090600a020160080160009054906101000a900460ff161515146121d557600080fd5b6121de8161184b565b73ffffffffffffffffffffffffffffffffffffffff163373ffffffffffffffffffffffffffffffffffffffff16141561221657600080fd5b6122296122228261184b565b3383610ea5565b60006006828154811061223f5761223e615037565b5b90600052602060002090600a020160080160006101000a81548160ff0219169083151502179055506006818154811061227b5761227a615037565b5b90600052602060002090600a020160070160006122989190614160565b600681815481106122ac576122ab615037565b5b90600052602060002090600a0201600301339080600181540180825580915050600190039060005260206000200160009091909190916101000a81548173ffffffffffffffffffffffffffffffffffffffff021916908373ffffffffffffffffffffffffffffffffffffffff1602179055506006818154811061233257612331615037565b5b90600052602060002090600a0201600601600061234f9190613fe2565b50565b60005b60068054905081101561268157600115156006828154811061237a57612379615037565b5b90600052602060002090600a020160080160009054906101000a900460ff161515141561266e57620d2f00600682815481106123b9576123b8615037565b5b90600052602060002090600a0201600901546123d59190615294565b821061266d576000600682815481106123f1576123f0615037565b5b90600052602060002090600a020160060180549050905060008114156124b6576006828154811061242557612424615037565b5b90600052602060002090600a020160060160006124429190613fe2565b6006828154811061245657612455615037565b5b90600052602060002090600a020160070160006124739190614160565b60006006838154811061248957612488615037565b5b90600052602060002090600a020160080160006101000a81548160ff02191690831515021790555061266b565b6001816124c391906152ea565b90506000600683815481106124db576124da615037565b5b90600052602060002090600a020160060182815481106124fe576124fd615037565b5b9060005260206000200160009054906101000a900473ffffffffffffffffffffffffffffffffffffffff1690506125358184610884565b60006006848154811061254b5761254a615037565b5b90600052602060002090600a0201600701838154811061256e5761256d615037565b5b9060005260206000200154905060003390508073ffffffffffffffffffffffffffffffffffffffff166108fc839081150290604051600060405180830381858888f193505050501580156125c6573d6000803e3d6000fd5b50600685815481106125db576125da615037565b5b90600052602060002090600a020160060160006125f89190613fe2565b6006858154811061260c5761260b615037565b5b90600052602060002090600a020160070160006126299190614160565b60006006868154811061263f5761263e615037565b5b90600052602060002090600a020160080160006101000a81548160ff0219169083151502179055505050505b505b5b808061267990615095565b915050612355565b5050565b60606001805461269490614e4f565b80601f01602080910402602001604051908101604052809291908181526020018280546126c090614e4f565b801561270d5780601f106126e25761010080835404028352916020019161270d565b820191906000526020600020905b8154815290600101906020018083116126f057829003601f168201915b5050505050905090565b6127208261184b565b73ffffffffffffffffffffffffffffffffffffffff163373ffffffffffffffffffffffffffffffffffffffff16141561275857600080fd5b60016006838154811061276e5761276d615037565b5b90600052602060002090600a020160040160006101000a81548160ff021916908315150217905561279e57600080fd5b6000600683815481106127b4576127b3615037565b5b90600052602060002090600a02016006018054905014156128c557600682815481106127e3576127e2615037565b5b90600052602060002090600a0201600601339080600181540180825580915050600190039060005260206000200160009091909190916101000a81548173ffffffffffffffffffffffffffffffffffffffff021916908373ffffffffffffffffffffffffffffffffffffffff1602179055506006828154811061286957612868615037565b5b90600052602060002090600a0201600701670de0b6b3a7640000346064612890919061531e565b61289a91906153a7565b9080600181540180825580915050600190039060005260206000200160009091909190915055612ada565b60006001600684815481106128dd576128dc615037565b5b90600052602060002090600a0201600601805490506128fc91906152ea565b90506006838154811061291257612911615037565b5b90600052602060002090600a0201600601818154811061293557612934615037565b5b9060005260206000200160009054906101000a900473ffffffffffffffffffffffffffffffffffffffff1673ffffffffffffffffffffffffffffffffffffffff166108fc6006858154811061298d5761298c615037565b5b90600052602060002090600a020160070183815481106129b0576129af615037565b5b90600052602060002001549081150290604051600060405180830381858888f193505050501580156129e6573d6000803e3d6000fd5b50600683815481106129fb576129fa615037565b5b90600052602060002090600a0201600601339080600181540180825580915050600190039060005260206000200160009091909190916101000a81548173ffffffffffffffffffffffffffffffffffffffff021916908373ffffffffffffffffffffffffffffffffffffffff16021790555060068381548110612a8157612a80615037565b5b90600052602060002090600a0201600701670de0b6b3a7640000346064612aa8919061531e565b612ab291906153a7565b9080600181540180825580915050600190039060005260206000200160009091909190915055505b5050565b6001151560068281548110612af657612af5615037565b5b90600052602060002090600a020160080160009054906101000a900460ff16151514612b2157600080fd5b612b2a8161184b565b73ffffffffffffffffffffffffffffffffffffffff163373ffffffffffffffffffffffffffffffffffffffff1614612b6157600080fd5b600060068281548110612b7757612b76615037565b5b90600052602060002090600a02016006018054905090506000811415612c3c5760068281548110612bab57612baa615037565b5b90600052602060002090600a02016006016000612bc89190613fe2565b60068281548110612bdc57612bdb615037565b5b90600052602060002090600a02016007016000612bf99190614160565b600060068381548110612c0f57612c0e615037565b5b90600052602060002090600a020160080160006101000a81548160ff021916908315150217905550612e10565b600181612c4991906152ea565b90506000811015612c5957600080fd5b600060068381548110612c6f57612c6e615037565b5b90600052602060002090600a02016006018281548110612c9257612c91615037565b5b9060005260206000200160009054906101000a900473ffffffffffffffffffffffffffffffffffffffff169050612cc98184610884565b600060068481548110612cdf57612cde615037565b5b90600052602060002090600a02016007018381548110612d0257612d01615037565b5b9060005260206000200154905060003390506000612710605a84612d26919061531e565b612d3091906153a7565b90506000606460018386612d4491906152ea565b612d4e919061531e565b612d5891906153a7565b90508273ffffffffffffffffffffffffffffffffffffffff166108fc839081150290604051600060405180830381858888f19350505050158015612da0573d6000803e3d6000fd5b50600960009054906101000a900473ffffffffffffffffffffffffffffffffffffffff1673ffffffffffffffffffffffffffffffffffffffff166108fc829081150290604051600060405180830381858888f19350505050158015612e09573d6000803e3d6000fd5b5050505050505b5050565b612e1c6134c8565b73ffffffffffffffffffffffffffffffffffffffff168273ffffffffffffffffffffffffffffffffffffffff161415612e8a576040517f08c379a0000000000000000000000000000000000000000000000000000000008152600401612e8190615424565b60405180910390fd5b8060056000612e976134c8565b73ffffffffffffffffffffffffffffffffffffffff1673ffffffffffffffffffffffffffffffffffffffff16815260200190815260200160002060008473ffffffffffffffffffffffffffffffffffffffff1673ffffffffffffffffffffffffffffffffffffffff16815260200190815260200160002060006101000a81548160ff0219169083151502179055508173ffffffffffffffffffffffffffffffffffffffff16612f446134c8565b73ffffffffffffffffffffffffffffffffffffffff167f17307eab39ab6107e8899845ad3d59bd9653f200f220920489ca2b5937696c3183604051612f899190614339565b60405180910390a35050565b612fa6612fa06134c8565b83613589565b612fe5576040517f08c379a0000000000000000000000000000000000000000000000000000000008152600401612fdc90615150565b60405180910390fd5b612ff1848484846138e1565b50505050565b60606130028261345c565b613041576040517f08c379a0000000000000000000000000000000000000000000000000000000008152600401613038906154b6565b60405180910390fd5b600061304b61393d565b9050600081511161306b5760405180602001604052806000815250613096565b8061307584613954565b604051602001613086929190615512565b6040516020818303038152906040525b915050919050565b67016345785d8a000034146130b257600080fd5b6130bb8361184b565b73ffffffffffffffffffffffffffffffffffffffff163373ffffffffffffffffffffffffffffffffffffffff16146130f257600080fd5b600015156006848154811061310a57613109615037565b5b90600052602060002090600a020160040160009054906101000a900460ff1615151461313557600080fd5b600015156006848154811061314d5761314c615037565b5b90600052602060002090600a020160080160009054906101000a900460ff1615151461317857600080fd5b60016006848154811061318e5761318d615037565b5b90600052602060002090600a020160040160006101000a81548160ff02191690831515021790555081426131c29190615294565b600684815481106131d6576131d5615037565b5b90600052602060002090600a0201600901819055508060068481548110613200576131ff615037565b5b90600052602060002090600a020160050181905550505050565b6000600560008473ffffffffffffffffffffffffffffffffffffffff1673ffffffffffffffffffffffffffffffffffffffff16815260200190815260200160002060008373ffffffffffffffffffffffffffffffffffffffff1673ffffffffffffffffffffffffffffffffffffffff16815260200190815260200160002060009054906101000a900460ff16905092915050565b60006132b942612352565b60005b6006805490508110156133c55760011515600682815481106132e1576132e0615037565b5b90600052602060002090600a020160040160009054906101000a900460ff16151514156133b257426006828154811061331d5761331c615037565b5b90600052602060002090600a020160090154116133b15760006006828154811061334a57613349615037565b5b90600052602060002090600a020160040160006101000a81548160ff02191690831515021790555060016006828154811061338857613387615037565b5b90600052602060002090600a020160080160006101000a81548160ff0219169083151502179055505b5b80806133bd90615095565b9150506132bc565b5042905090565b600960009054906101000a900473ffffffffffffffffffffffffffffffffffffffff1681565b60007f01ffc9a7000000000000000000000000000000000000000000000000000000007bffffffffffffffffffffffffffffffffffffffffffffffffffffffff1916827bffffffffffffffffffffffffffffffffffffffffffffffffffffffff1916149050919050565b60008073ffffffffffffffffffffffffffffffffffffffff166002600084815260200190815260200160002060009054906101000a900473ffffffffffffffffffffffffffffffffffffffff1673ffffffffffffffffffffffffffffffffffffffff1614159050919050565b600033905090565b816004600083815260200190815260200160002060006101000a81548173ffffffffffffffffffffffffffffffffffffffff021916908373ffffffffffffffffffffffffffffffffffffffff160217905550808273ffffffffffffffffffffffffffffffffffffffff166135438361184b565b73ffffffffffffffffffffffffffffffffffffffff167f8c5be1e5ebec7d5bd14f71427d1e84f3dd0314c0f7b2291e5b200ac8c7c3b92560405160405180910390a45050565b60006135948261345c565b6135d3576040517f08c379a00000000000000000000000000000000000000000000000000000000081526004016135ca906155a8565b60405180910390fd5b60006135de8361184b565b90508073ffffffffffffffffffffffffffffffffffffffff168473ffffffffffffffffffffffffffffffffffffffff16148061364d57508373ffffffffffffffffffffffffffffffffffffffff16613635846107ff565b73ffffffffffffffffffffffffffffffffffffffff16145b8061365e575061365d818561321a565b5b91505092915050565b8273ffffffffffffffffffffffffffffffffffffffff166136878261184b565b73ffffffffffffffffffffffffffffffffffffffff16146136dd576040517f08c379a00000000000000000000000000000000000000000000000000000000081526004016136d49061563a565b60405180910390fd5b600073ffffffffffffffffffffffffffffffffffffffff168273ffffffffffffffffffffffffffffffffffffffff16141561374d576040517f08c379a0000000000000000000000000000000000000000000000000000000008152600401613744906156cc565b60405180910390fd5b613758838383613ab5565b6137636000826134d0565b6001600360008573ffffffffffffffffffffffffffffffffffffffff1673ffffffffffffffffffffffffffffffffffffffff16815260200190815260200160002060008282546137b391906152ea565b925050819055506001600360008473ffffffffffffffffffffffffffffffffffffffff1673ffffffffffffffffffffffffffffffffffffffff168152602001908152602001600020600082825461380a9190615294565b92505081905550816002600083815260200190815260200160002060006101000a81548173ffffffffffffffffffffffffffffffffffffffff021916908373ffffffffffffffffffffffffffffffffffffffff160217905550808273ffffffffffffffffffffffffffffffffffffffff168473ffffffffffffffffffffffffffffffffffffffff167fddf252ad1be2c89b69c2b068fc378daa952ba7f163c4a11628f55a4df523b3ef60405160405180910390a4505050565b6138dd828260405180602001604052806000815250613aba565b5050565b6138ec848484613667565b6138f884848484613b15565b613937576040517f08c379a000000000000000000000000000000000000000000000000000000000815260040161392e9061575e565b60405180910390fd5b50505050565b606060405180602001604052806000815250905090565b6060600082141561399c576040518060400160405280600181526020017f30000000000000000000000000000000000000000000000000000000000000008152509050613ab0565b600082905060005b600082146139ce5780806139b790615095565b915050600a826139c791906153a7565b91506139a4565b60008167ffffffffffffffff8111156139ea576139e96149ff565b5b6040519080825280601f01601f191660200182016040528015613a1c5781602001600182028036833780820191505090505b5090505b60008514613aa957600182613a3591906152ea565b9150600a85613a44919061577e565b6030613a509190615294565b60f81b818381518110613a6657613a65615037565b5b60200101907effffffffffffffffffffffffffffffffffffffffffffffffffffffffffffff1916908160001a905350600a85613aa291906153a7565b9450613a20565b8093505050505b919050565b505050565b613ac48383613cac565b613ad16000848484613b15565b613b10576040517f08c379a0000000000000000000000000000000000000000000000000000000008152600401613b079061575e565b60405180910390fd5b505050565b6000613b368473ffffffffffffffffffffffffffffffffffffffff16613e7a565b15613c9f578373ffffffffffffffffffffffffffffffffffffffff1663150b7a02613b5f6134c8565b8786866040518563ffffffff1660e01b8152600401613b819493929190615804565b602060405180830381600087803b158015613b9b57600080fd5b505af1925050508015613bcc57506040513d601f19601f82011682018060405250810190613bc99190615865565b60015b613c4f573d8060008114613bfc576040519150601f19603f3d011682016040523d82523d6000602084013e613c01565b606091505b50600081511415613c47576040517f08c379a0000000000000000000000000000000000000000000000000000000008152600401613c3e9061575e565b60405180910390fd5b805181602001fd5b63150b7a0260e01b7bffffffffffffffffffffffffffffffffffffffffffffffffffffffff1916817bffffffffffffffffffffffffffffffffffffffffffffffffffffffff191614915050613ca4565b600190505b949350505050565b600073ffffffffffffffffffffffffffffffffffffffff168273ffffffffffffffffffffffffffffffffffffffff161415613d1c576040517f08c379a0000000000000000000000000000000000000000000000000000000008152600401613d13906158de565b60405180910390fd5b613d258161345c565b15613d65576040517f08c379a0000000000000000000000000000000000000000000000000000000008152600401613d5c9061594a565b60405180910390fd5b613d7160008383613ab5565b6001600360008473ffffffffffffffffffffffffffffffffffffffff1673ffffffffffffffffffffffffffffffffffffffff1681526020019081526020016000206000828254613dc19190615294565b92505081905550816002600083815260200190815260200160002060006101000a81548173ffffffffffffffffffffffffffffffffffffffff021916908373ffffffffffffffffffffffffffffffffffffffff160217905550808273ffffffffffffffffffffffffffffffffffffffff16600073ffffffffffffffffffffffffffffffffffffffff167fddf252ad1be2c89b69c2b068fc378daa952ba7f163c4a11628f55a4df523b3ef60405160405180910390a45050565b600080823b905060008111915050919050565b50805460008255600a0290600052602060002090810190613eae9190614181565b50565b828054613ebd90614e4f565b90600052602060002090601f016020900481019282613edf5760008555613f2d565b82601f10613ef05780548555613f2d565b82800160010185558215613f2d57600052602060002091601f016020900482015b82811115613f2c578254825591600101919060010190613f11565b5b509050613f3a9190614228565b5090565b828054828255906000526020600020908101928215613f7f5760005260206000209182015b82811115613f7e578254825591600101919060010190613f63565b5b509050613f8c9190614228565b5090565b828054828255906000526020600020908101928215613fd15760005260206000209182015b82811115613fd0578254825591600101919060010190613fb5565b5b509050613fde9190614228565b5090565b50805460008255906000526020600020908101906140009190614228565b50565b82805461400f90614e4f565b90600052602060002090601f0160209004810192826140315760008555614078565b82601f1061404a57805160ff1916838001178555614078565b82800160010185558215614078579182015b8281111561407757825182559160200191906001019061405c565b5b5090506140859190614228565b5090565b828054828255906000526020600020908101928215614102579160200282015b828111156141015782518260006101000a81548173ffffffffffffffffffffffffffffffffffffffff021916908373ffffffffffffffffffffffffffffffffffffffff160217905550916020019190600101906140a9565b5b50905061410f9190614228565b5090565b82805482825590600052602060002090810192821561414f579160200282015b8281111561414e578251825591602001919060010190614133565b5b50905061415c9190614228565b5090565b508054600082559060005260206000209081019061417e9190614228565b50565b5b80821115614224576000808201600090556001820160006141a39190614245565b6002820160006141b39190614245565b6003820160006141c39190613fe2565b6004820160006101000a81549060ff021916905560058201600090556006820160006141ef9190613fe2565b6007820160006141ff9190614160565b6008820160006101000a81549060ff0219169055600982016000905550600a01614182565b5090565b5b80821115614241576000816000905550600101614229565b5090565b50805461425190614e4f565b6000825580601f106142635750614282565b601f0160209004906000526020600020908101906142819190614228565b5b50565b6000604051905090565b600080fd5b600080fd5b60007fffffffff0000000000000000000000000000000000000000000000000000000082169050919050565b6142ce81614299565b81146142d957600080fd5b50565b6000813590506142eb816142c5565b92915050565b6000602082840312156143075761430661428f565b5b6000614315848285016142dc565b91505092915050565b60008115159050919050565b6143338161431e565b82525050565b600060208201905061434e600083018461432a565b92915050565b600081519050919050565b600082825260208201905092915050565b60005b8381101561438e578082015181840152602081019050614373565b8381111561439d576000848401525b50505050565b6000601f19601f8301169050919050565b60006143bf82614354565b6143c9818561435f565b93506143d9818560208601614370565b6143e2816143a3565b840191505092915050565b6000602082019050818103600083015261440781846143b4565b905092915050565b6000819050919050565b6144228161440f565b811461442d57600080fd5b50565b60008135905061443f81614419565b92915050565b60006020828403121561445b5761445a61428f565b5b600061446984828501614430565b91505092915050565b600073ffffffffffffffffffffffffffffffffffffffff82169050919050565b600061449d82614472565b9050919050565b6144ad81614492565b82525050565b60006020820190506144c860008301846144a4565b92915050565b6144d781614492565b81146144e257600080fd5b50565b6000813590506144f4816144ce565b92915050565b600080604083850312156145115761451061428f565b5b600061451f858286016144e5565b925050602061453085828601614430565b9150509250929050565b6000602082840312156145505761454f61428f565b5b600061455e848285016144e5565b91505092915050565b600081519050919050565b600082825260208201905092915050565b6000819050602082019050919050565b61459c8161440f565b82525050565b600082825260208201905092915050565b60006145be82614354565b6145c881856145a2565b93506145d8818560208601614370565b6145e1816143a3565b840191505092915050565b600081519050919050565b600082825260208201905092915050565b6000819050602082019050919050565b61462181614492565b82525050565b60006146338383614618565b60208301905092915050565b6000602082019050919050565b6000614657826145ec565b61466181856145f7565b935061466c83614608565b8060005b8381101561469d5781516146848882614627565b975061468f8361463f565b925050600181019050614670565b5085935050505092915050565b6146b38161431e565b82525050565b600081519050919050565b600082825260208201905092915050565b6000819050602082019050919050565b60006146f18383614593565b60208301905092915050565b6000602082019050919050565b6000614715826146b9565b61471f81856146c4565b935061472a836146d5565b8060005b8381101561475b57815161474288826146e5565b975061474d836146fd565b92505060018101905061472e565b5085935050505092915050565b6000610140830160008301516147816000860182614593565b506020830151848203602086015261479982826145b3565b915050604083015184820360408601526147b382826145b3565b915050606083015184820360608601526147cd828261464c565b91505060808301516147e260808601826146aa565b5060a08301516147f560a0860182614593565b5060c083015184820360c086015261480d828261464c565b91505060e083015184820360e0860152614827828261470a565b91505061010083015161483e6101008601826146aa565b50610120830151614853610120860182614593565b508091505092915050565b600061486a8383614768565b905092915050565b6000602082019050919050565b600061488a82614567565b6148948185614572565b9350836020820285016148a685614583565b8060005b858110156148e257848403895281516148c3858261485e565b94506148ce83614872565b925060208a019950506001810190506148aa565b50829750879550505050505092915050565b6000602082019050818103600083015261490e818461487f565b905092915050565b60008060006060848603121561492f5761492e61428f565b5b600061493d868287016144e5565b935050602061494e868287016144e5565b925050604061495f86828701614430565b9150509250925092565b6149728161440f565b82525050565b600060e08201905061498d600083018a614969565b818103602083015261499f81896143b4565b905081810360408301526149b381886143b4565b90506149c2606083018761432a565b6149cf6080830186614969565b6149dc60a083018561432a565b6149e960c0830184614969565b98975050505050505050565b600080fd5b600080fd5b7f4e487b7100000000000000000000000000000000000000000000000000000000600052604160045260246000fd5b614a37826143a3565b810181811067ffffffffffffffff82111715614a5657614a556149ff565b5b80604052505050565b6000614a69614285565b9050614a758282614a2e565b919050565b600067ffffffffffffffff821115614a9557614a946149ff565b5b614a9e826143a3565b9050602081019050919050565b82818337600083830152505050565b6000614acd614ac884614a7a565b614a5f565b905082815260208101848484011115614ae957614ae86149fa565b5b614af4848285614aab565b509392505050565b600082601f830112614b1157614b106149f5565b5b8135614b21848260208601614aba565b91505092915050565b60008060408385031215614b4157614b4061428f565b5b600083013567ffffffffffffffff811115614b5f57614b5e614294565b5b614b6b85828601614afc565b925050602083013567ffffffffffffffff811115614b8c57614b8b614294565b5b614b9885828601614afc565b9150509250929050565b6000602082019050614bb76000830184614969565b92915050565b60008060408385031215614bd457614bd361428f565b5b6000614be285828601614430565b9250506020614bf3858286016144e5565b9150509250929050565b614c068161431e565b8114614c1157600080fd5b50565b600081359050614c2381614bfd565b92915050565b60008060408385031215614c4057614c3f61428f565b5b6000614c4e858286016144e5565b9250506020614c5f85828601614c14565b9150509250929050565b600067ffffffffffffffff821115614c8457614c836149ff565b5b614c8d826143a3565b9050602081019050919050565b6000614cad614ca884614c69565b614a5f565b905082815260208101848484011115614cc957614cc86149fa565b5b614cd4848285614aab565b509392505050565b600082601f830112614cf157614cf06149f5565b5b8135614d01848260208601614c9a565b91505092915050565b60008060008060808587031215614d2457614d2361428f565b5b6000614d32878288016144e5565b9450506020614d43878288016144e5565b9350506040614d5487828801614430565b925050606085013567ffffffffffffffff811115614d7557614d74614294565b5b614d8187828801614cdc565b91505092959194509250565b600080600060608486031215614da657614da561428f565b5b6000614db486828701614430565b9350506020614dc586828701614430565b9250506040614dd686828701614430565b9150509250925092565b60008060408385031215614df757614df661428f565b5b6000614e05858286016144e5565b9250506020614e16858286016144e5565b9150509250929050565b7f4e487b7100000000000000000000000000000000000000000000000000000000600052602260045260246000fd5b60006002820490506001821680614e6757607f821691505b60208210811415614e7b57614e7a614e20565b5b50919050565b7f4552433732313a20617070726f76656420717565727920666f72206e6f6e657860008201527f697374656e7420746f6b656e0000000000000000000000000000000000000000602082015250565b6000614edd602c8361435f565b9150614ee882614e81565b604082019050919050565b60006020820190508181036000830152614f0c81614ed0565b9050919050565b7f4552433732313a20617070726f76616c20746f2063757272656e74206f776e6560008201527f7200000000000000000000000000000000000000000000000000000000000000602082015250565b6000614f6f60218361435f565b9150614f7a82614f13565b604082019050919050565b60006020820190508181036000830152614f9e81614f62565b9050919050565b7f4552433732313a20617070726f76652063616c6c6572206973206e6f74206f7760008201527f6e6572206e6f7220617070726f76656420666f7220616c6c0000000000000000602082015250565b600061500160388361435f565b915061500c82614fa5565b604082019050919050565b6000602082019050818103600083015261503081614ff4565b9050919050565b7f4e487b7100000000000000000000000000000000000000000000000000000000600052603260045260246000fd5b7f4e487b7100000000000000000000000000000000000000000000000000000000600052601160045260246000fd5b60006150a08261440f565b91507fffffffffffffffffffffffffffffffffffffffffffffffffffffffffffffffff8214156150d3576150d2615066565b5b600182019050919050565b7f4552433732313a207472616e736665722063616c6c6572206973206e6f74206f60008201527f776e6572206e6f7220617070726f766564000000000000000000000000000000602082015250565b600061513a60318361435f565b9150615145826150de565b604082019050919050565b600060208201905081810360008301526151698161512d565b9050919050565b7f4552433732313a206f776e657220717565727920666f72206e6f6e657869737460008201527f656e7420746f6b656e0000000000000000000000000000000000000000000000602082015250565b60006151cc60298361435f565b91506151d782615170565b604082019050919050565b600060208201905081810360008301526151fb816151bf565b9050919050565b7f4552433732313a2062616c616e636520717565727920666f7220746865207a6560008201527f726f206164647265737300000000000000000000000000000000000000000000602082015250565b600061525e602a8361435f565b915061526982615202565b604082019050919050565b6000602082019050818103600083015261528d81615251565b9050919050565b600061529f8261440f565b91506152aa8361440f565b9250827fffffffffffffffffffffffffffffffffffffffffffffffffffffffffffffffff038211156152df576152de615066565b5b828201905092915050565b60006152f58261440f565b91506153008361440f565b92508282101561531357615312615066565b5b828203905092915050565b60006153298261440f565b91506153348361440f565b9250817fffffffffffffffffffffffffffffffffffffffffffffffffffffffffffffffff048311821515161561536d5761536c615066565b5b828202905092915050565b7f4e487b7100000000000000000000000000000000000000000000000000000000600052601260045260246000fd5b60006153b28261440f565b91506153bd8361440f565b9250826153cd576153cc615378565b5b828204905092915050565b7f4552433732313a20617070726f766520746f2063616c6c657200000000000000600082015250565b600061540e60198361435f565b9150615419826153d8565b602082019050919050565b6000602082019050818103600083015261543d81615401565b9050919050565b7f4552433732314d657461646174613a2055524920717565727920666f72206e6f60008201527f6e6578697374656e7420746f6b656e0000000000000000000000000000000000602082015250565b60006154a0602f8361435f565b91506154ab82615444565b604082019050919050565b600060208201905081810360008301526154cf81615493565b9050919050565b600081905092915050565b60006154ec82614354565b6154f681856154d6565b9350615506818560208601614370565b80840191505092915050565b600061551e82856154e1565b915061552a82846154e1565b91508190509392505050565b7f4552433732313a206f70657261746f7220717565727920666f72206e6f6e657860008201527f697374656e7420746f6b656e0000000000000000000000000000000000000000602082015250565b6000615592602c8361435f565b915061559d82615536565b604082019050919050565b600060208201905081810360008301526155c181615585565b9050919050565b7f4552433732313a207472616e73666572206f6620746f6b656e2074686174206960008201527f73206e6f74206f776e0000000000000000000000000000000000000000000000602082015250565b600061562460298361435f565b915061562f826155c8565b604082019050919050565b6000602082019050818103600083015261565381615617565b9050919050565b7f4552433732313a207472616e7366657220746f20746865207a65726f2061646460008201527f7265737300000000000000000000000000000000000000000000000000000000602082015250565b60006156b660248361435f565b91506156c18261565a565b604082019050919050565b600060208201905081810360008301526156e5816156a9565b9050919050565b7f4552433732313a207472616e7366657220746f206e6f6e20455243373231526560008201527f63656976657220696d706c656d656e7465720000000000000000000000000000602082015250565b600061574860328361435f565b9150615753826156ec565b604082019050919050565b600060208201905081810360008301526157778161573b565b9050919050565b60006157898261440f565b91506157948361440f565b9250826157a4576157a3615378565b5b828206905092915050565b600081519050919050565b600082825260208201905092915050565b60006157d6826157af565b6157e081856157ba565b93506157f0818560208601614370565b6157f9816143a3565b840191505092915050565b600060808201905061581960008301876144a4565b61582660208301866144a4565b6158336040830185614969565b818103606083015261584581846157cb565b905095945050505050565b60008151905061585f816142c5565b92915050565b60006020828403121561587b5761587a61428f565b5b600061588984828501615850565b91505092915050565b7f4552433732313a206d696e7420746f20746865207a65726f2061646472657373600082015250565b60006158c860208361435f565b91506158d382615892565b602082019050919050565b600060208201905081810360008301526158f7816158bb565b9050919050565b7f4552433732313a20746f6b656e20616c7265616479206d696e74656400000000600082015250565b6000615934601c8361435f565b915061593f826158fe565b602082019050919050565b6000602082019050818103600083015261596381615927565b905091905056fea2646970667358221220be393c5f634e831ecb490f61234b2585b437d057191959a5d3499daeb99da3ea64736f6c63430008090033",
  "immutableReferences": {},
  "source": "pragma solidity 0.8.9;\r\n\r\nimport \"../node_modules/@openzeppelin/contracts/token/ERC721/ERC721.sol\";\r\n\r\ncontract auction is ERC721 {\r\n    struct NFT {\r\n        uint256 id;\r\n        string name;\r\n        string imgurl;\r\n        address[] ownerhistory;\r\n        bool onsale;\r\n        uint256 startprice;\r\n        address[] bidderhistory;\r\n        uint256[] bidpricehistory;\r\n        bool setaside;\r\n        uint256 endtime;\r\n    }\r\n\r\n    NFT[] public nfts;\r\n    NFT[] public result;\r\n    address[] public temp;\r\n    address public gameOwner;\r\n\r\n    constructor() public ERC721(\"GameItem\", \"ITM\") {\r\n        gameOwner = msg.sender;\r\n    }\r\n\r\n    function createNFT(string memory _name, string memory _imgurl)\r\n        public\r\n        payable\r\n    {\r\n        require(msg.value == 0.1 ether);\r\n        uint256 id = nfts.length;\r\n        delete temp;\r\n\r\n        temp.push(msg.sender);\r\n        address[] memory temp3;\r\n        uint256[] memory temp2;\r\n        nfts.push(NFT(id, _name, _imgurl, temp, false, 0, temp3, temp2, false, block.timestamp));\r\n        _safeMint(msg.sender, id);\r\n    }\r\n\r\n    function createAuction(\r\n        uint256 _id,\r\n        uint256 _sec,\r\n        uint256 _startprice\r\n    ) public payable {\r\n        require(msg.value == 0.1 ether);\r\n        require(msg.sender == ownerOf(_id));\r\n        require(nfts[_id].onsale == false);\r\n        require(nfts[_id].setaside == false);\r\n        nfts[_id].onsale = true;\r\n        nfts[_id].endtime = block.timestamp + _sec;\r\n        nfts[_id].startprice = _startprice;\r\n    }\r\n\r\n    function getNFT(address _sender) public returns (NFT[] memory) {\r\n        delete result;\r\n        for (uint256 i = 0; i < nfts.length; i++) {\r\n            if (ownerOf(i) == _sender) {\r\n                result.push(nfts[i]);\r\n            }\r\n        }\r\n        return result;\r\n    }\r\n\r\n    function getAuction() public returns (NFT[] memory) {\r\n        delete result;\r\n        for (uint256 i = 0; i < nfts.length; i++) {\r\n            if (nfts[i].onsale == true) {\r\n                result.push(nfts[i]);\r\n            }\r\n        }\r\n        return result;\r\n    }\r\n\r\n    function checkAllOverTime(uint256 timestamp) public payable {\r\n        for (uint256 i = 0; i < nfts.length; i++) {\r\n            if (nfts[i].setaside == true) {\r\n                if (timestamp >= nfts[i].endtime + 10 * 24 * 3600) {\r\n                    uint256 index = nfts[i].bidderhistory.length;\r\n                    if (index == 0) {\r\n                        delete nfts[i].bidderhistory;\r\n                        delete nfts[i].bidpricehistory;\r\n                        nfts[i].setaside = false;\r\n                    } else {\r\n                        index = index - 1;\r\n                        address buyer = nfts[i].bidderhistory[index];\r\n                        approve(buyer, i);\r\n                        uint256 money = nfts[i].bidpricehistory[index];\r\n                        address payable owner = payable(msg.sender);\r\n                        owner.transfer(money);\r\n                        delete nfts[i].bidderhistory;\r\n                        delete nfts[i].bidpricehistory;\r\n                        nfts[i].setaside = false;\r\n                    }\r\n                }\r\n            }\r\n        }\r\n    }\r\n\r\n    function updateAuction() public payable returns (uint256) {\r\n        checkAllOverTime(block.timestamp);\r\n        for (uint256 i = 0; i < nfts.length; i++) {\r\n            if (nfts[i].onsale == true) {\r\n                if (nfts[i].endtime <= block.timestamp) {\r\n                    nfts[i].onsale = false;\r\n                    nfts[i].setaside = true;\r\n                }\r\n            }\r\n        }\r\n        return block.timestamp;\r\n    }\r\n\r\n    function bid(uint256 _id, address sender) public payable {\r\n        require(msg.sender != ownerOf(_id));\r\n        require(nfts[_id].onsale = true);\r\n        if (nfts[_id].bidderhistory.length == 0) {\r\n            nfts[_id].bidderhistory.push(msg.sender);\r\n            nfts[_id].bidpricehistory.push((100 * msg.value) / 1000000000000000000);\r\n        } else {\r\n            uint256 index = nfts[_id].bidderhistory.length - 1;\r\n            payable(nfts[_id].bidderhistory[index]).transfer(nfts[_id].bidpricehistory[index]);\r\n            nfts[_id].bidderhistory.push(msg.sender);\r\n            nfts[_id].bidpricehistory.push((100 * msg.value) / 1000000000000000000);\r\n        }\r\n    }\r\n\r\n    function getbid(address _sender) public returns (NFT[] memory) {\r\n        delete result;\r\n        for (uint256 i = 0; i < nfts.length; i++) {\r\n            if (nfts[i].onsale == true || nfts[i].setaside == true)\r\n                for (uint256 j = 0; j < nfts[i].bidderhistory.length; j++) {\r\n                    if (nfts[i].bidderhistory[j] == _sender) {\r\n                        result.push(nfts[i]);\r\n                        break;\r\n                    }\r\n                }\r\n        }\r\n        return result;\r\n    }\r\n\r\n    function ownerconfirm(uint256 _id) public payable {\r\n        require(nfts[_id].setaside == true);\r\n\r\n        require(msg.sender == ownerOf(_id));\r\n        uint256 index = nfts[_id].bidderhistory.length;\r\n        if (index == 0) {\r\n            delete nfts[_id].bidderhistory;\r\n            delete nfts[_id].bidpricehistory;\r\n            nfts[_id].setaside = false;\r\n        } else {\r\n            index = index - 1;\r\n            require(index >= 0);\r\n            address buyer = nfts[_id].bidderhistory[index];\r\n            approve(buyer, _id);\r\n            uint256 money = nfts[_id].bidpricehistory[index];\r\n            address payable owner = payable(msg.sender);\r\n            uint256 money1 = (money * 90) / 10000;\r\n            uint256 money2 = ((money - money1) * 1) / 100;\r\n            owner.transfer(money1);\r\n            payable(gameOwner).transfer(money2);\r\n        }\r\n    }\r\n\r\n    function buyerconfirm(uint256 _id) public payable {\r\n        require(nfts[_id].setaside == true);\r\n        require(msg.sender != ownerOf(_id));\r\n        transferFrom(ownerOf(_id), msg.sender, _id);\r\n        nfts[_id].setaside = false;\r\n        delete nfts[_id].bidpricehistory;\r\n        nfts[_id].ownerhistory.push(msg.sender);\r\n        delete nfts[_id].bidderhistory;\r\n    }\r\n}\r\n",
  "sourcePath": "C:\\Users\\lenovo\\Desktop\\\\NFTAuction\\contract\\contracts\\auction.sol",
  "compiler": {
    "name": "solc",
    "version": "0.8.9+commit.e5eed63a.Emscripten.clang"
  },
  "schemaVersion": "3.4.3",
  "updatedAt": "2021-11-05T16:53:26.252Z",
  "networkType": "ethereum",
  "devdoc": {
    "kind": "dev",
    "methods": {
      "approve(address,uint256)": {
        "details": "See {IERC721-approve}."
      },
      "balanceOf(address)": {
        "details": "See {IERC721-balanceOf}."
      },
      "getApproved(uint256)": {
        "details": "See {IERC721-getApproved}."
      },
      "isApprovedForAll(address,address)": {
        "details": "See {IERC721-isApprovedForAll}."
      },
      "name()": {
        "details": "See {IERC721Metadata-name}."
      },
      "ownerOf(uint256)": {
        "details": "See {IERC721-ownerOf}."
      },
      "safeTransferFrom(address,address,uint256)": {
        "details": "See {IERC721-safeTransferFrom}."
      },
      "safeTransferFrom(address,address,uint256,bytes)": {
        "details": "See {IERC721-safeTransferFrom}."
      },
      "setApprovalForAll(address,bool)": {
        "details": "See {IERC721-setApprovalForAll}."
      },
      "supportsInterface(bytes4)": {
        "details": "See {IERC165-supportsInterface}."
      },
      "symbol()": {
        "details": "See {IERC721Metadata-symbol}."
      },
      "tokenURI(uint256)": {
        "details": "See {IERC721Metadata-tokenURI}."
      },
      "transferFrom(address,address,uint256)": {
        "details": "See {IERC721-transferFrom}."
      }
    },
    "version": 1
  },
  "userdoc": {
    "kind": "user",
    "methods": {},
    "version": 1
  }
}